:020000040800F2
:10000000E0040020010100088715000877130008AC
:10001000851500080F020008191A000800000000EA
:100020000000000000000000000000008B15000828
:100030001102000800000000891500088D15000855
:100040001B0100081B0100081B0100081B01000820
:100050001B0100081B0100081B0100081B01000810
:100060001B0100081B0100081B0100081B01000800
:100070001B0100081B0100081B0100081B010008F0
:100080001B0100081B0100081B0100081B010008E0
:100090001B0100081B0100081B0100081B010008D0
:1000A0001B0100081B0100081B0100081B010008C0
:1000B000291600081B0100081B0100081B0100088D
:1000C0001B0100081B0100081B0100081B010008A0
:1000D0001B0100081B0100081B0100081B01000890
:1000E0001B0100081B0100081B010008DFF80CD0F1
:1000F00000F06CF800480047C11C0008E004002034
:100100000648804706480047FEE7FEE7FEE7FEE7B1
:10011000FEE7FEE7FEE7FEE7FEE7FEE7E115000883
:10012000ED000008202A04DB203A21FA02F0002129
:10013000704721FA02F3D040C2F1200291400843F7
:1001400019467047D2B201E000F8012B491EFBD2DC
:1001500070470022F6E710B513460A4604461946D2
:10016000FFF7F0FF204610BD2DE9F05F05460020A7
:1001700092469B4688460646814640241BE0284618
:10018000414647462246FFF7CDFF53465A46C01A1E
:10019000914110D311461846224600F029F82D1A35
:1001A00067EB01084F4622460120002100F020F8AD
:1001B00017EB00094E41201EA4F10104DFDC484684
:1001C00031462A464346BDE8F09F0000064C074DE5
:1001D00006E0E06840F0010394E807009847103417
:1001E000AC42F6D3FFF786FF581D0008781D0008C3
:1001F000202A04DB203A00FA02F1002070479140E7
:10020000C2F1200320FA03F3194390407047FEE740
:100210007047704770B5044600F0FEF80546601C54
:1002200002D004480078044400F0F6F8401BA042D5
:10023000FAD370BD080000202DE9F84FDFF8B8911F
:10024000002409F1040A0AF1040B23460F270BF1DD
:10025000040EC9E00125A5402A40AA427DD1674E7F
:10026000D1F804C0ACEB0608B44532D014DCBCF1C4
:10027000030F3AD009DCBCF1000F2AD0BCF1010F0A
:100280001CD0BCF1020F31D11DE0BCF1110F17D011
:10029000BCF1120F2AD119E0B8F5881F19D006DC7D
:1002A000B8F5803F15D0B8F5801F1FD111E0B8F523
:1002B000001F0ED0B8F5041F18D10AE0CB6815E076
:1002C000CB681B1D12E0CB6808330FE0CB680C3302
:1002D0000CE08B682BB1012B4FF0080303D0456174
:1002E00004E0042302E0056100E00023FF2A01D8B6
:1002F000064601E000F104064FEA840501D9A5F1A4
:100300002005D6F8008007FA05FC28EA0C0803FA55
:1003100005F548EA0508C6F800804D68ED0062D58D
:10032000374DAE6946F00106AE61AD6924F00306B3
:1003300005F001050095334D06EB050CDCF808507F
:10034000A607360F07FA06F825EA0805DFF8B88091
:10035000404503D14FF0000817E044E0DFF8AC80DF
:10036000404502D14FF001080FE0DFF8A48040457E
:1003700002D14FF0020808E0DFF89880404502D132
:100380004FF0030801E04FF0040808FA06F848EAC5
:100390000508CCF808804D68D9F80060ED034D469B
:1003A00001D5164300E096432E604D68DAF80060F0
:1003B000AD03554601D5164300E096432E604D68C7
:1003C000DBF80060ED025D4601D5164300E0964380
:1003D0002E604D68DEF80060AD02754601D516430B
:1003E00000E096432E60641C0D682A46E5407FF4C9
:1003F00031AFBDE8F88F000000040140000011108B
:10040000001002400000014000080140000C0140C3
:10041000001001400014014001488068704700004E
:10042000080000200248816802781144816070470A
:1004300008000020074810B5016841F01001016074
:10044000032000F075F8002000F006F800F024F812
:10045000002010BD0020024070B50D4D04464FF441
:100460007A712878B1FBF0F00A490968B1FBF0F025
:1004700000F0ECFA48B9102C07D200222146501E99
:1004800000F036F800206C6070BD012070BD0000E7
:1004900008000020140000200C4808B5816941F0D4
:1004A00001018161816901F001010091C16941F09F
:1004B0008051C161C06900F08050009004484168DB
:1004C00021F0E06141F08061416008BD0010024010
:1004D00000000140002809DB00F01F0201219140CB
:1004E0004009800000F1E020C0F8001170470000D2
:1004F000F0B40E4B1B680C46C3F30223C3F107058F
:10050000042D00D90425191D072901D2002300E07C
:10051000DB1E012606FA05F1491E214099409E4046
:10052000761E16403143F0BC01F088BA0CED00E0B5
:10053000064900F0070208684FF6FF03184040EA3A
:100540000220034A10430860704700000CED00E0F1
:100550000000FA052DE9F0470F46050061D0434E33
:10056000306800F00700B84209D2306820F0070078
:1005700038433060306800F00700B84251D1286835
:100580003B4C810712D5400703D5606840F4E0601A
:1005900060602878000703D5606840F460506060B0
:1005A0006068A96820F0F000084360602878C00700
:1005B00028D06868012810D02168022810D0890747
:1005C00000292EDA616821F0030101436160FFF721
:1005D00023FF804641F288390DE021688903EFE767
:1005E0008901EDE7FFF718FFA0EB0801494502D9A3
:1005F0000320BDE8F0876068696800F00C00B0EB8C
:10060000810FEFD1306800F00700B8420BD9306895
:1006100020F0070038433060306800F00700B8422F
:1006200001D00120E5E72878400705D56068E96832
:1006300020F4E060084360602878000706D5606811
:10064000296920F4605040EAC100606000F038F889
:100650006168084AC1F30311515CC840064908604B
:1006600006480068FFF7F8FE0020C2E700200240BD
:1006700000100240401D0008140000200C00002063
:100680000448054900684968044AC1F30221515CE5
:10069000C84070471400002000100240501D0008A0
:1006A0000448054900684968044AC1F3C221515C05
:1006B000C84070471400002000100240501D000880
:1006C00012A185B00FC98DE80F0014A0144A00686C
:1006D00004905168134801F00C03042B10D0082B30
:1006E0000ED1C1F38343C9031DF803000AD5516835
:1006F00004AAC1F34041515C0A4A5043B0FBF1F0F7
:1007000005B0704708494843FAE7000002030405B2
:10071000060708090A0B0C0D0E0F1010010200004D
:100720000010024000127A0000093D002DE9F84F48
:10073000040070D02078C04DC00749D06868C0F36D
:100740008100012807D06868C0F38100022809D120
:100750006868C00306D52868800339D5606800281A
:10076000E7D035E06068B0F5803F0BD010B1B0F550
:10077000A02F11D0286820F480302860286820F449
:10078000802002E0286840F480302860606890B1E2
:10079000FFF742FE06460AE0286840F48020286001
:1007A000F0E700BFFFF738FE801B642873D8286885
:1007B0008003F7D50CE0FFF72FFE064605E000BFEB
:1007C000FFF72AFE801B6428F0D828688003F7D43E
:1007D00020789A4E80074FF001094FF0000839D574
:1007E000686810F00C0F07D06868C0F38100022819
:1007F00009D16868C00306D42868800714D5206929
:10080000012808D110E02069B0B1C6F80090FFF7C8
:1008100003FE074605E00AE1FFF7FEFDC01B0228C4
:10082000C4D828688007F7D52868616920F0F800E7
:1008300040EAC10028600DE0C6F80080FFF7ECFD3B
:10084000074604E0FFF7E8FDC01B022823D828680C
:100850008007F7D4207800072CD57948A169D9B151
:10086000C0F80090FFF7D8FD074604E0FFF7D4FD7D
:10087000C01B02280FD8686A8007F7D571484FF46B
:10088000FA510068B0FBF1F0009000BF0098411EE3
:100890000091FAD20EE080E0C0F80080FFF7BCFDC6
:1008A000074604E0FFF7B8FDC01B022875D8686A48
:1008B0008007F7D42078400760D5E8690027C0009A
:1008C00008D4E86940F08050E861E869012700F049
:1008D000805000905C480168C90513D401688346C4
:1008E00041F480710160FFF797FD824606E000BF8A
:1008F000FFF792FDA0EB0A0064284ED8DBF8000059
:10090000C005F5D5E06801280AD008B1052813D044
:10091000286A20F001002862286A20F0040002E022
:10092000286A40F001002862E06841F2883B98B1F3
:10093000FFF772FD82460BE0286A40F0040028624F
:10094000EEE700BFFFF768FDA0EB0A0159455AD852
:10095000286A8007F6D50CE0FFF75EFD824605E0C9
:10096000FFF75AFDA0EB0A0159454CD8286A8007C9
:10097000F6D41FB1E86920F08050E861E06988B3DF
:100980006968C1F38101022944D00228C6F8608059
:1009900004D0FFF741FD044638E034E0FFF73CFDAA
:1009A000074604E0FFF738FDC01B02282BD8286853
:1009B0008001F7D4206AB0F5803F05D16868A1684E
:1009C00020F4003008436860D4E9080108436968EE
:1009D00021F4741108436860C6F86090FFF71CFDAD
:1009E000044606E025E000BFFFF716FD001B0228C5
:1009F00009D828688001F7D51BE000BFFFF70CFD80
:100A0000001B022802D90320BDE8F88F2868800166
:100A1000F4D40EE00128F7D06868226A00F480312F
:100A2000914204D1616A00F47010884201D0012023
:100A3000EAE70020E8E70000001002400000424220
:100A400080044242140000200070004010B5401E97
:100A5000B0F1807F01D3012010BD4FF0E024606130
:100A60000F21601700F0EAFF0020A061072020613D
:100A7000002010BD7047704770B590F83C20012AE7
:100A800019D0012400F83C4F0222427050F83C3C3F
:100A90005A689D6822F070060A684968324325F05A
:100AA000800529435A6050F83C2C91604470002125
:100AB0000170084670BD022070BD10B5040003D05F
:100AC00094F83D0010B107E0012010BD002084F82B
:100AD0003C00204600F00CF8022084F83D00211D67
:100AE000206800F0A7FD012084F83D00002010BD23
:100AF00000B585B000210091019102910391016838
:100B00001748B1F1804F0CD0164A914207D1C16904
:100B100041F00201C161C06900F00200049005B01B
:100B200000BDC16941F00101C161C16901F001016C
:100B30000491816941F0040181618069694600F096
:100B400004000490022000900748FFF775FB002284
:100B500011461C20FFF7CCFC1C20FFF7BBFCDEE796
:100B600000100240000400400008014070B5044637
:100B700090F83C00012817D0012584F83C50022051
:100B800084F83D002068826822F0770222F47F42D8
:100B900082600868502830D00DDC20284DD005DC5C
:100BA00098B310283BD148E0022070BD302844D0D3
:100BB000402834D139E0602828D0702806D0B0F51C
:100BC000805F2CD0B0F5005F29D10AE0CB68D1E975
:100BD0000121206800F071FD2068816841F07701F3
:100BE00009E0CB68D1E90121206800F066FD2068AA
:100BF000816841F48041816011E0CA6849682068D9
:100C000000F010FE5021206807E016E0CA6849682D
:100C1000206800F045FE6021206800F058FD84F84F
:100C20003D50002084F83C0070BDCA6849682068C7
:100C300000F0F8FD40212068EFE7226801461046E9
:100C4000EBE700002DE9F041214C207801062CD47F
:100C5000204D41064FF0000629D540F0800020705D
:100C60000421284600F0AAFA606021784FF6FF7749
:100C700001F03F01A1FB072CCB0F03FB07C30024AE
:100C800001FB04331218734113A000F0C7FE28685B
:100C9000016A41F21112114207D1016A9210114208
:100CA00003D1016821F001010160BDE8F08140201D
:100CB00066602070286846622868016A21F0A001F9
:100CC00001622868016A41F020010162EDE700003D
:100CD000000000201C0000205468652074696D65C8
:100CE00020697320256C6C642075730D0A00000068
:100CF0002DE9F041044690F83C000D4601283BD018
:100D0000012684F83C60022084F83D009AB3042A4E
:100D100044D02068082A53D0D5E90027E968036A3F
:100D200023F480530362D0F81CC0036A2CF4407C87
:100D30004CEA07274FF6FF7C27F470470CEA013195
:100D40003943770323F4005307EA02321A43C1619F
:100D500002622068C16921F44061C1612068C169F3
:100D6000AA6841EA0221C16184F83D60002084F84C
:100D70003C00BDE8F08101E00220FAE7D5E900126D
:100D8000EB68206800F060FD2068816921F00C01AB
:100D9000816120688169AA6811430FE0D5E90012DA
:100DA000EB68206800F08EFD2068816921F44061C5
:100DB000816120688169AA6841EA02218161D3E7E3
:100DC000D5E9002C2F7B016A21F480710162C16991
:100DD000036A21F0030141EA0C0121F0F00C39070C
:100DE0004FF400774CEA116123F4007307EA022202
:100DF0001A43C16102622068C16921F00C01C1611E
:100E00002068C169AA681143ADE710B5040003D09A
:100E100094F83D0010B107E0012010BD002084F8D7
:100E20003C00204600F00CF8022084F83D00211D13
:100E3000206800F0FFFB012084F83D00002010BD79
:100E4000704710B50268044631B1042908D008295A
:100E50001AD00C2908D11BE0D06840F0020002E053
:100E6000D06840F00400D0600122206800F018FC37
:100E70002068816801F00701062903D0016841F06C
:100E800001010160002010BDD06840F00800EAE7D1
:100E9000D06840F01000E6E770B5044600680169CC
:100EA0004FF00005C943890715D4C168C9438907B4
:100EB00011D4E91E01610120207720688069800734
:100EC000204602D0FFF7BEFE04E000F0BFF8204647
:100ED00000F041F9257720680169C943490717D413
:100EE000C168C943490713D46FF0040101610220AE
:100EF00020772068806910F4407F204602D0FFF7F9
:100F0000A1FE04E000F0A2F8204600F024F92577C5
:100F100020680169C943090716D4C168C943090794
:100F200012D46FF008010161042020772068C069A5
:100F30008007204602D0FFF785FE04E000F086F827
:100F4000204600F008F9257720680169C943C906E1
:100F500017D4C168C943C90613D46FF010010161E9
:100F6000082020772068C06910F4407F204602D016
:100F7000FFF768FE04E000F069F8204600F0EBF8A7
:100F8000257720680169C943C90708D1C168C943E9
:100F9000C90704D1891E0161204600F0F9F82068D4
:100FA0000169C943090609D4C168C943090605D4C2
:100FB0006FF0800101612046FFF75CFD2068016948
:100FC000C943490609D4C168C943490605D46FF02D
:100FD00040010161204600F006F920680169C9431B
:100FE00089060BD4C168C943890607D46FF0200174
:100FF00001612046BDE87040FFF73DBD70BD0000B7
:1010000000B585B000210091019102910391006823
:101010000B49884211D10B48816941F0040181617B
:101020008069694600F0040004904020009002208E
:10103000019003900448FFF7FFF805B000BD0000E1
:10104000000400400010024000080140704770B5E5
:10105000044690F83C000D4601280DD0012684F886
:101060003C60022084F83D0042B1042A18D0082ACE
:101070002AD00C2A4DD139E0022070BD206800F042
:101080002FFB2068816941F0080181612068816936
:1010900021F004018161206881692A69114311E00E
:1010A000206800F045FB2068816941F4006181619E
:1010B0002068816921F480618161206881692A69E1
:1010C00041EA0221816124E0206800F05DFB206894
:1010D000C16941F00801C1612068C16921F00401C2
:1010E000C1612068C1692A69114311E0206800F0DC
:1010F00077FB2068C16941F40061C1612068C16962
:1011000021F48061C1612068C1692A6941EA022134
:10111000C16184F83D60002084F83C0070BD10B5CA
:10112000040003D094F83D0010B107E0012010BD89
:10113000002084F83C00204600F00CF8022084F8DF
:101140003D00211D206800F075FA012084F83D0063
:10115000002010BD7047704710B50446006801229A
:1011600000F09EFA09492068884203D1416C41F49D
:10117000004141642068816801F00701062903D01D
:10118000016841F001010160002010BD002C014008
:1011900009490878020606D4420604D5C2439206DD
:1011A00002D0401C0870704740F0800008704FF675
:1011B000FF704860704700000000002002460020D9
:1011C00041B1042909D008290AD00C2901D110689D
:1011D000006C70471068406B70471068806B7047F8
:1011E0001068C06B7047704770B5040004D094F865
:1011F0003900002510B106E0012070BD84F8385098
:10120000204600F023F8242084F839002068C168C3
:1012100021F40051C160204600F070FB2068016994
:1012200021F4904101612068416921F02A01416166
:101230002068C16841F40051C160E563202084F852
:10124000390084F83A00002070BD000030B585B048
:101250000024009401940294039400681449884285
:1012600024D11448816941F480418161816901F48C
:1012700080410491816941F00401816180690E4DD2
:1012800000F0040004904FF40070009002200190E0
:101290000320039069462846FEF7CEFF2815CDE9C6
:1012A0000004694628460294FEF7C6FF05B030BD2B
:1012B0000038014000100240000801402DE9F843C9
:1012C000044690F839001F4616460D46202850D196
:1012D000A5B19EB194F8380001284AD0012084F8C5
:1012E00038004FF00008C4F83C80212084F8390011
:1012F000FFF792F8A6848146E68426E00120BDE847
:10130000F883E08C401EE084A0684B46B0F5805F17
:101310004FF000024FF080012046009703D000F00C
:1013200049FBE8B90DE000F045FBC8B92888216801
:10133000C0F308004860206908B16D1C05E0AD1CD1
:1013400003E0216815F8010B4860E08C0028D8D133
:101350004B46002240212046009700F02BFB08B1AD
:101360000320CCE7202084F8390084F8388000205E
:10137000C5E70220C3E7FEE730B585B00020029044
:1013800003902048816941F010018161816901F079
:1013900010010491816941F020018161816901F0AE
:1013A00020010491816941F004018161816901F0AA
:1013B00004010491816941F00801816180694FF65F
:1013C000FF75032400F00800CDE90054049069463D
:1013D0000D48FEF731FF4FF6BD10CDE90004694618
:1013E0000A48FEF729FFCDE9005469460848FEF790
:1013F00023FF0420CDE9000469460648FEF71CFFE0
:1014000005B030BD0010024000100140000801404E
:10141000000C01400014014010B58AB0002422489D
:1014200004940594069407940894099400940194F4
:1014300002944FF08041039401604721C0E90114F8
:101440004FF6FF71C0E903148461FFF736FB08B162
:10145000FEF7DFFE4FF48050049004A91248FFF716
:1014600085FB08B1FEF7D5FE0F48FFF7CEFC08B1AB
:10147000FEF7CFFE089408A90B480994FFF7FCFA81
:1014800008B1FEF7C6FE0120CDE900400294042217
:10149000694605480394FFF72BFC002801D0FEF7AE
:1014A000B8FE0AB010BD00001C00002010B58EB0C0
:1014B00000240794089409940A940B941C2168460C
:1014C0000C94FEF746FE20481E49016041F61F417C
:1014D000C0E9011442F20F71C0E903148461FFF7FF
:1014E000ECFA08B1FEF795FE4FF48050079007A97B
:1014F0001548FFF73BFB08B1FEF78BFE1248FFF7DC
:101500000EFE08B1FEF785FE0B940BA90E480C9455
:10151000FFF7B2FA08B1FEF77CFE6020009041F2BE
:101520008730CDE901040022694607480494FFF79B
:101530008EFD08B1FEF76DFE0348FFF761FD0EB0AA
:1015400010BD0000000400405C0000200C4810B5F5
:101550000A4901604FF4E1314160002181600C22B1
:10156000C160C0E904128161C161FFF73DFE00283E
:1015700003D0BDE81040FEF74CBE10BD003801405E
:101580009C000020FEE7704770477047FEF74ABF97
:1015900030B58FB028216846FEF7DBFD14210AA87C
:1015A000FEF7D7FD01210804CDE9001000240294C4
:1015B00002250491CDE907504FF4E01009906846E8
:1015C000FFF7B4F80F20CDE90A056802CDE90C4019
:1015D00002210AA80E94FEF7BDFF0FB030BD000037
:1015E0000D48016841F00101016041680B4A11405A
:1015F000416001680A4A11400160016821F48021BC
:101600000160416821F4FE0141604FF41F018160D7
:101610000449C00308607047001002400000FFF852
:10162000FFFFF6FE08ED00E00148FFF735BC0000C3
:101630001C000020F0B50268164B174C174D4FF0F8
:101640008047984205D0B84203D0A04201D0A842BA
:1016500003D122F070064A683243984205D0B8425E
:1016600003D0A04201D0A84203D122F44074CA683A
:1016700022434C6922F08002224302608A68C262DF
:101680000A688262984201D10969016301214161BE
:10169000F0BD0000002C01400004004000080040A4
:1016A00010B501F01F030121046A99408C430462C4
:1016B000016A9A401143016210BD10B5846842EA84
:1016C000032224F47F440A432243826010BD8268CF
:1016D00022F070020A4342F0070181607047000067
:1016E00030B5026A22F001020262026A436884692C
:1016F00024F073050C682C4322F002058A682A4303
:101700000A4DA8420BD122F00805CA6823F44073A1
:101710002A434D6922F004021D438B692B43436029
:10172000846149684163026230BD0000002C0140C1
:1017300030B5026A22F010020262026A43688469CC
:101740000D6824F4E64444EA05248D6822F0200262
:1017500042EA05120B4DA8420ED1CD6822F080025C
:1017600042EA05124D6923F4406343EA85038D691B
:1017700022F0400243EA8503436084614968816343
:10178000026230BD002C014030B5026A22F4807242
:101790000262036A4268C46923F4007324F073058B
:1017A0000C682C438D6843EA05230C4DA8420ED1EA
:1017B000CD6823F4006343EA05234D6922F44052C7
:1017C00042EA05128D6923F4806342EA0512426001
:1017D000C4614968C163036230BD0000002C014050
:1017E00030B5026A22F480520262046A4268C36918
:1017F0000D6823F4E64343EA05238D6824F400547E
:1018000044EA0534064DA84204D14D6922F48042D1
:1018100042EA85124260C36149680164046230BDD6
:10182000002C014010B5036A046A24F0010404622C
:10183000846924F0F00444EA021423F00A020A4303
:101840008461026210BD000070B5046A24F00104D6
:1018500004628469056A0F4EB04208D0B0F1804F2F
:1018600005D00D4EB04202D00C4EB04203D124F050
:101870000304144301E044F001041A0724F0F004C7
:1018800044EA126225F00A0301F00A011943826159
:10189000016270BD002C01400004004000080040BF
:1018A00010B5036A23F0100303628369046A23F40A
:1018B000704343EA023224F0A00343EA011182613B
:1018C000016210BD30B5046A24F01004046284691A
:1018D000056A24F4407444EA022222F470444FF66C
:1018E000FF7202EA03322243A02425F0A00304EA97
:1018F000011119438261016230BD00002DE9F04100
:10190000044600680169E26821F440511143016115
:101910002169A0680843616908432168CA6841F2E7
:101920000C639A430243CA6020684169A26921F4AA
:101930004071114341611E49206864253226884266
:1019400002D1FEF7ADFE01E0FEF79AFE00EBC0010A
:1019500001EB001160686FF018078000B1FBF0F236
:10196000B2FBF5F2B1FBF0F37A4303EB8202B1FB79
:10197000F0F306EB0212B2FBF5F2B3FBF5F302F063
:10198000F00202EB0312B1FBF0F3B1FBF0F0B0FB9D
:10199000F5F0784303EB800006EB0010B0FBF5F0A8
:1019A000216800F00F0010448860BDE8F08100005D
:1019B000003801402DE9F041984617460E4604468E
:1019C000069D1DE0681C1BD02DB1FEF725FDA0EB88
:1019D0000800A84214D92068C16821F4D071C16000
:1019E0002068416921F001014161202084F839001B
:1019F00084F83A00002084F838000320BDE8F08124
:101A00002068006836EA000004D00020B842D9D02F
:101A10000020F3E70120F9E7FEE700000FB4054BD3
:101A200010B503A9044A029800F028F810BC5DF82C
:101A300014FB0000A91C0008180000200907090E6B
:101A4000002804DB00F1E02080F80014704700F06B
:101A50000F0000F1E02080F8141D704702E008C874
:101A6000121F08C1002AFAD170477047002001E018
:101A700001C1121F002AFBD1704700002DE9FF4F62
:101A80008BB09A460F460446002606E025280BD068
:101A900052460D999047641C761C20780028F5D199
:101AA0000FB03046BDE8F08F0025A94601227D49E0
:101AB00000E0054314F8013F203B02FA03F008421E
:101AC000F7D120782E2817D114F8010F45F004051E
:101AD0002A280ED06FF02F022078A0F130010929BA
:101AE0000AD809EB890102EB410100EB0109641CF2
:101AF000F2E757F8049B641C20786C280DD004DCB6
:101B00004C2812D06A2811D104E074280DD07A280C
:101B10000CD10AE045F4001507E0617845F4801522
:101B2000814202D1641C05F58015641C2078692867
:101B30003ED006DC0028B3D063280BD0642804D143
:101B400036E0732810D075285CD052460D99904726
:101B5000761CA5E017F8040B8DF8000000208DF826
:101B60000100E846012003E057F8048B4FF0FF30F6
:101B700069074FF0000501D40AE06D1C4D450DDAF0
:101B80008542FADB18F805100029F6D106E06D1C35
:101B90008542FCDB18F805100029F8D12E4404E03A
:101BA00018F8010B52460D9990476D1EF8D277E058
:101BB00000200A90C5F302504FF00A0B02280CD007
:101BC00001CFC117021E71F100020CDA0023D0EB25
:101BD000030063EB01012D2208E0FF1D27F007073A
:101BE000F7E80201EEE72A0504D52B228DF8242020
:101BF000012203E0EA070FD02022F7E70DF12008C9
:101C0000089218E000200A90C5F302504FF00A0B2A
:101C1000022803D001CF00210022EFE7FF1D27F0AB
:101C20000707F7E80201F7E75A460A9BFEF79CFA16
:101C3000303208F8012D50EA0102F5D1ADEB080071
:101C400000F1200B680701D44FF00109D94502DDEE
:101C5000A9EB0B0000E000208146002506E009A862
:101C60005246405D0D9990476D1C761C0898854240
:101C7000F5DB04E0302052460D999047761CB9F10F
:101C80000001A9F10109F5DC05E018F8010B524645
:101C90000D999047761CBBF10001ABF1010BF4DC10
:101CA000641CFAE60928010013B54FF6FF73012200
:101CB00069460248FFF702FB00981CBD9C0000200B
:101CC000FEF7B8FBFFF764FCFFF756FBFFF7A4FB3A
:101CD000FFF7ECFBFFF73AFC00211648FFF73CFA50
:101CE000144941F287300968486304211248FFF71C
:101CF000A8F8114C2068C16841F00101C1600F4D86
:101D000000264FF47A7728780006FCD53846FEF78F
:101D100081FA206846622068016A21F0A001016210
:101D20002068016A0162016841F0010101602E70C2
:101D3000E9E700005C0000201C00002000000020FB
:101D4000000000000000000001020304060708096B
:101D50000000000001020304781D000800000020BC
:101D60001C0000005C1A0008941D00081C000020E4
:101D7000C40400006C1A000800000000000000000D
:101D80000100000010000000000000000024F4002A
:041D9000000000004F
:04000005080000ED02
:00000001FF
