:020000040800F2
:10000000E80B0020010100083F100008ED0C00087B
:100010003D100008C3010008B912000800000000EC
:10002000000000000000000000000000271200088F
:10003000C501000800000000251200082912000870
:100040001B0100081B0100081B0100081B01000820
:100050001B0100081B0100081B0100081B01000810
:100060001B0100081B0100081B0100081B01000800
:100070001B0100081B0100081B0100081B010008F0
:100080001B0100081B0100081B0100081B010008E0
:100090001B0100081B0100081B0100081B010008D0
:1000A0001B0100081B0100081B0100081B010008C0
:1000B0001B0100081B0100081B0100081B010008B0
:1000C0001B0100081B0100081B0100081B010008A0
:1000D0001B0100081B0100081B0100081B01000890
:1000E0001B0100081B0100081B010008DFF80CD0F1
:1000F00000F02AF80048004745130008E80B0020EC
:100100000648804706480047FEE7FEE7FEE7FEE7B1
:10011000FEE7FEE7FEE7FEE7FEE7FEE771120008F6
:10012000ED000008D2B201E000F8012B491EFBD21D
:1001300070470022F6E710B513460A4604461946F2
:10014000FFF7F0FF204610BD064C074D06E0E068C3
:1001500040F0010394E8070098471034AC42F6D30E
:10016000FFF7C8FFC8130008E813000870B58C1823
:1001700010F8015B15F0070301D110F8013B2A11BB
:1001800006D110F8012B03E010F8016B01F8016BA8
:100190005B1EF9D12B0705D40023521E0DD401F8A4
:1001A000013BFAE710F8013BCB1A921C03E013F86D
:1001B000015B01F8015B521EF9D5A142D8D30020A2
:1001C00070BDFEE77047704770B5044600F0FEF85A
:1001D0000546601C02D004480078044400F0F6F89C
:1001E000401BA042FAD370BD800700202DE9F84FD4
:1001F000DFF8B891002409F1040A0AF1040B234640
:100200000F270BF1040EC9E00125A5402A40AA42A0
:100210007DD1674ED1F804C0ACEB0608B44532D0AE
:1002200014DCBCF1030F3AD009DCBCF1000F2AD07A
:10023000BCF1010F1CD0BCF1020F31D11DE0BCF1AB
:10024000110F17D0BCF1120F2AD119E0B8F5881F91
:1002500019D006DCB8F5803F15D0B8F5801F1FD146
:1002600011E0B8F5001F0ED0B8F5041F18D10AE050
:10027000CB6815E0CB681B1D12E0CB6808330FE09C
:10028000CB680C330CE08B682BB1012B4FF00803CB
:1002900003D0456104E0042302E0056100E000238F
:1002A000FF2A01D8064601E000F104064FEA840562
:1002B00001D9A5F12005D6F8008007FA05FC28EA47
:1002C0000C0803FA05F548EA0508C6F800804D68F1
:1002D000ED0062D5374DAE6946F00106AE61AD69FD
:1002E00024F0030605F001050095334D06EB050CDF
:1002F000DCF80850A607360F07FA06F825EA0805C5
:10030000DFF8B880404503D14FF0000817E044E023
:10031000DFF8AC80404502D14FF001080FE0DFF874
:10032000A480404502D14FF0020808E0DFF8988031
:10033000404502D14FF0030801E04FF0040808FAED
:1003400006F848EA0508CCF808804D68D9F800603E
:10035000ED034D4601D5164300E096432E604D68EF
:10036000DAF80060AD03554601D5164300E0964328
:100370002E604D68DBF80060ED025D4601D5164346
:1003800000E096432E604D68DEF80060AD027546D1
:1003900001D5164300E096432E60641C0D682A4682
:1003A000E5407FF431AFBDE8F88F00000004014064
:1003B0000000111000100240000001400008014040
:1003C000000C014000100140001401400148806809
:1003D000704700008007002070B504001BD094F81F
:1003E0003D00002520B984F83C50204600F046F935
:1003F000242084F83D002068016821F0010101609B
:1004000000F08AFA4D4A6168914201D84C4900E0F7
:100410004C49884201D2012070BD4B492368B0FB92
:10042000F1F15E6826F03F060E435E60636893421A
:1004300006D94FF4967359434FF47A73B1FBF3F135
:100440002368491C1E6A26F03F0631431962616821
:10045000914210D84900401EB0FBF1F2521CC2F389
:100460000B02042A01D2042022E0B0FBF1F0401C70
:10047000C0F30B001CE0A368F3B301EBC10202EB75
:100480000116421EB2FBF6F2521C42F480421205E3
:1004900049D093B301EBC10202EB0111401EB0FB46
:1004A000F1F0401CC0F30B0040F4804040F40040E9
:1004B0002168CA694CF6FF739A431043C861D4E9B6
:1004C0000701084321680A6822F0C002104308604F
:1004D000D4E9030101432068826848F2FF339A435C
:1004E00011438160D4E9050108432168CA6822F0FC
:1004F000FF021043C86001E00EE016E020680168CA
:1005000041F0010101602564202084F83D0025634D
:1005100084F83E50002070BD01EB4106421EB2FB44
:10052000F6F2521CB3E70120C2E701EB4101401E85
:10053000B0FBF1F0401CC0F30B00B7E7A086010050
:1005400080841E0000093D0040420F002DE9FF4F4E
:1005500083B09A46DDE9119793460446DDF8408062
:10056000FFF734FF054694F83D0020287FD119237A
:10057000012240492046009500F040FC002876D139
:1005800094F83C00012872D0012084F83C002068D7
:100590000168C90703D1016841F0010101602068C9
:1005A000016821F400610160212084F83D004020B1
:1005B00084F83E0000262664C4F82480A4F82A901B
:1005C000608D20852C48E062CDE9007553465A467F
:1005D0002046049900F0A2FB70B930E02A46394663
:1005E000204600F08AFC58B1206C042804D1206811
:1005F000016841F400710160012007B0BDE8F08F8F
:10060000606A216800780861606A401C6062218D20
:10061000491E89B22185628D521E62852268536906
:10062000DB435B070BD469B100781061606A401C42
:100630006062208D401E2085608D401E6085208D6B
:100640000028CBD12A463946204600F0B1FB0028CD
:10065000CAD154F83D0B016841F4007101602020BB
:1006600004F81E09E67766770020C6E7FFE7022058
:10067000C3E70000020010000000FFFF10B586B0C5
:100680000021009101910291039100680F49884275
:100690001AD10F4CA06940F00800A061A06969461A
:1006A00000F008000490C020009012200190032068
:1006B00003900848FFF79AFDE06940F40010E061FC
:1006C000E06900F40010049006B010BD0054004032
:1006D00000100240000C0140024881680278114479
:1006E0008160704780070020074810B5016841F01D
:1006F00010010160032000F067F8002000F006F808
:1007000000F024F8002010BD0020024070B50D4D0F
:1007100004464FF47A712878B1FBF0F00A49096871
:10072000B1FBF0F000F0CEFA48B9102C07D200224D
:100730002146501E00F028F800206C6070BD01209A
:1007400070BD0000800700208C0700200C4808B511
:10075000816941F001018161816901F0010100912C
:10076000C16941F08051C161C06900F080500090C2
:100770000448416821F0E06141F08061416008BDBA
:100780000010024000000140F0B40E4B1B680C4604
:10079000C3F30223C3F10705042D00D90425191D55
:1007A000072901D2002300E0DB1E012606FA05F12D
:1007B000491E214099409E40761E16403143F0BCB0
:1007C00000F0A0BD0CED00E0064900F0070208684B
:1007D0004FF6FF03184040EA0220034A1043086026
:1007E000704700000CED00E00000FA052DE9F0472D
:1007F0000F46050061D0434E306800F00700B84254
:1008000009D2306820F0070038433060306800F0CB
:100810000700B84251D128683B4C810712D54007E8
:1008200003D5606840F4E06060602878000703D575
:10083000606840F4605060606068A96820F0F00073
:10084000084360602878C00728D06868012810D065
:100850002168022810D0890700292EDA616821F06A
:10086000030101436160FFF7B1FD804641F2883921
:100870000DE021688903EFE78901EDE7FFF7A6FDA9
:10088000A0EB0801494502D90320BDE8F087606864
:10089000696800F00C00B0EB810FEFD1306800F018
:1008A0000700B8420BD9306820F0070038433060A9
:1008B000306800F00700B84201D00120E5E7287851
:1008C000400705D56068E96820F4E060084360608F
:1008D0002878000706D56068296920F4605040EA4E
:1008E000C100606000F028F86168084AC1F3031194
:1008F000515CC8400649086006480068FFF706FFDB
:100900000020C2E70020024000100240B01300089F
:100910008C070020840700200448054900684968C6
:10092000044AC1F30221515CC84070478C07002083
:1009300000100240C013000812A185B00FC98DE855
:100940000F0014A0144A006804905168134801F085
:100950000C03042B10D0082B0ED1C1F38343C90321
:100960001DF803000AD5516804AAC1F34041515C47
:100970000A4A5043B0FBF1F005B0704708494843BC
:10098000FAE7000002030405060708090A0B0C0D2C
:100990000E0F1010010200000010024000127A0039
:1009A00000093D002DE9F84F040070D02078C04DBB
:1009B000C00749D06868C0F38100012807D0686883
:1009C000C0F38100022809D16868C00306D52868F1
:1009D000800339D560680028E7D035E06068B0F55D
:1009E000803F0BD010B1B0F5A02F11D0286820F4B3
:1009F00080302860286820F4802002E0286840F4D5
:100A000080302860606890B1FFF7E0FC06460AE09D
:100A1000286840F480202860F0E700BFFFF7D6FC8C
:100A2000801B642873D828688003F7D50CE0FFF793
:100A3000CDFC064605E000BFFFF7C8FC801B64281C
:100A4000F0D828688003F7D420789A4E80074FF0BA
:100A500001094FF0000839D5686810F00C0F07D075
:100A60006868C0F38100022809D16868C00306D411
:100A70002868800714D52069012808D110E0206972
:100A8000B0B1C6F80090FFF7A1FC074605E00AE107
:100A9000FFF79CFCC01B0228C4D828688007F7D544
:100AA0002868616920F0F80040EAC10028600DE084
:100AB000C6F80080FFF78AFC074604E0FFF786FCD3
:100AC000C01B022823D828688007F7D420780007A5
:100AD0002CD57948A169D9B1C0F80090FFF776FC10
:100AE000074604E0FFF772FCC01B02280FD8686AB3
:100AF0008007F7D571484FF4FA510068B0FBF1F068
:100B0000009000BF0098411E0091FAD20EE080E0F4
:100B1000C0F80080FFF75AFC074604E0FFF756FCD8
:100B2000C01B022875D8686A8007F7D42078400770
:100B300060D5E8690027C00008D4E86940F080501B
:100B4000E861E869012700F0805000905C48016886
:100B5000C90513D40168834641F480710160FFF731
:100B600035FC824606E000BFFFF730FCA0EB0A0030
:100B700064284ED8DBF80000C005F5D5E0680128F0
:100B80000AD008B1052813D0286A20F00100286295
:100B9000286A20F0040002E0286A40F00100286280
:100BA000E06841F2883B98B1FFF710FC82460BE009
:100BB000286A40F004002862EEE700BFFFF706FC59
:100BC000A0EB0A0159455AD8286A8007F6D50CE0EF
:100BD000FFF7FCFB824605E0FFF7F8FBA0EB0A01FC
:100BE00059454CD8286A8007F6D41FB1E86920F02F
:100BF0008050E861E06988B36968C1F38101022926
:100C000044D00228C6F8608004D0FFF7DFFB04461A
:100C100038E034E0FFF7DAFB074604E0FFF7D6FBE5
:100C2000C01B02282BD828688001F7D4206AB0F5B1
:100C3000803F05D16868A16820F4003008436860EF
:100C4000D4E908010843696821F474110843686015
:100C5000C6F86090FFF7BAFB044606E025E000BF47
:100C6000FFF7B4FB001B022809D828688001F7D5DC
:100C70001BE000BFFFF7AAFB001B022802D90320DC
:100C8000BDE8F88F28688001F4D40EE00128F7D081
:100C90006868226A00F48031914204D1616A00F4EC
:100CA0007010884201D00120EAE70020E8E7000048
:100CB0000010024000004242800442428C070020A3
:100CC0000070004010B5401EB0F1807F01D30120BC
:100CD00010BD4FF0E02460610F21601700F012FB9F
:100CE0000020A06107202061002010BDFEE7016800
:100CF0004A69D24352050FD46FF480624A610021E1
:100D000040F8301F202242738173026942F00402CE
:100D10000261017301207047002070472DE9F843FC
:100D2000044600680D46DDE90897016898461646B6
:100D300041F4807101604B4600224FF001112046C2
:100D4000009700F05BF8E0B9216805F0FE0008614B
:100D50003B464A461549204600F084F888B9206889
:100D60004169806900903A464946204600F0C5F83E
:100D700050B1206C042804D12068016841F400714E
:100D800001600120BDE8F883F5B2B8F1010F09D088
:100D90002168300A08613A464946204600F0ADF81D
:100DA0000028E6D1206805610020EBE70200010081
:100DB00070B516460D4604460DE02046FFF797FF36
:100DC00008B1012070BD681C05D0FFF7FFFA801B39
:100DD000A84207D835B120684069C0434007ECD429
:100DE000002070BD002044F8300F20216173A073F3
:100DF000216941F0200121612073E2E72DE9F047EC
:100E00001E4690460D460446C1F30747DDF8209084
:100E100008E0701C06D0FFF7D9FAA0EB0900B04239
:100E20000FD876B12068012F18D0806925EA00001C
:100E30000004000C14D000214145EAD00020BDE898
:100E4000F087002044F8300F20216173A0732169DE
:100E500041F02001216120730120F0E74069E5E7BE
:100E60000121E9E72DE9F0479A4691460E460446EE
:100E700000254FF02008C1F3074725E020684069AE
:100E8000C043400514D42068016841F4007101603A
:100E900021686FF480604861256384F83D8084F8A0
:100EA0003E50206C40F00400206484F83C501FE069
:100EB000B9F1FF3F08D0FFF789FAA0EB0A014945D5
:100EC0000CD8B9F1000F09D02068012F13D0806928
:100ED00026EA00000004000C0BD0CFE744F8305F96
:100EE00084F80D80A573206940F0200020612573EF
:100EF0000120BDE8F0874069EAE770B516460D4667
:100F000004460DE02046FFF7F2FE08B1012070BD57
:100F1000681C05D0FFF75AFA801BA84207D835B1E4
:100F200020684069C0430006ECD4002070BD00205A
:100F300044F8300F20216173A073216941F0200132
:100F400021612073E2E7000030B585B000200290F7
:100F500003902448816941F010018161816901F0A9
:100F600010010491816941F020018161816901F0E2
:100F700020010491816941F004018161816901F0DE
:100F800004010491816941F00801816180694FF693
:100F9000FF75032400F00800CDE900540490694671
:100FA0001148FFF723F90720CDE9000469460F48EF
:100FB000FFF71CF9CDE9005469460D48FFF716F913
:100FC0004FF63F70CDE9000469460A48FFF70EF975
:100FD0000948416841F0E06141F40041416005B0D9
:100FE00030BD00000010024000100140001401401C
:100FF00000080140000C0140000001400D4810B500
:101000000B4901600C49416000214FF4804281602E
:10101000C0E9031241618161C1610162FFF7DCF93E
:10102000002803D0BDE81040FFF7CDB810BD000088
:101030000054004090070020A0860100FEE77047A2
:1010400070B50024002104F1B00000F0E5F80021A3
:10105000084600F0E1F80021102000F0DDF800253E
:101060000121002000F0D8F86D1CEDB2802DF7D3DF
:10107000641CE4B2082CE5D370BD2DE9F047984616
:101080001746824600260C46DDF8209011E02146E6
:10109000504600F084F8554607E019F80600012193
:1010A000761C00F0B9F86D1CEDB2BD42F5D3641C9E
:1010B000E4B24445EBD3BDE8F08710B5C820FFF794
:1010C00083F80021AE2000F0A7F80021084600F0C8
:1010D000A3F80021102000F09FF80021402000F02C
:1010E0009BF80021B02000F097F80021812000F04B
:1010F00093F80021FF2000F08FF80021A12000F0DC
:101100008BF80021A62000F087F80021A82000F02D
:1011100083F800213F2000F07FF80021C82000F074
:101120007BF80021D32000F077F80021084600F07A
:1011300073F80021D52000F06FF80021802000F026
:101140006BF80021D82000F067F80021052000F09E
:1011500063F80021D92000F05FF80021F12000F0B1
:101160005BF80021DA2000F057F80021122000F08F
:1011700053F80021DB2000F04FF80021302000F070
:101180004BF800218D2000F047F80021142000F0DA
:1011900043F80021BDE81040AF2000F03DB810B585
:1011A0000A460446002102F1B00000F035F8102094
:1011B00040EA1410002100F02FF804F00F00BDE801
:1011C0001040002100F028B82DE9F04115460E46E8
:1011D0000746FFF7E4FF0F48002400EB85150121C7
:1011E000285D00F019F8641CE4B2102CF7D3761CCB
:1011F000F1B23846FFF7D3FF00242819012190F8F7
:10120000200000F009F8641CE4B2102CF5D3BDE80E
:10121000F081000000030020C0B209B100F060B806
:1012200000F04CB870477047FFF756BA10B590B051
:1012300028216846FEF77DFF14210AA8FEF779FFF2
:1012400002200090012004901020002405900794B3
:101250006846FFF7A7FB0F20CDE90A040C940D9414
:1012600000210AA80E94FFF7C1FA10B010BD0000CB
:101270000D48016841F00101016041680B4A1140CD
:10128000416001680A4A11400160016821F480212F
:101290000160416821F4FE0141604FF41F0181604B
:1012A0000449C00308607047001002400000FFF8C6
:1012B000FFFFF6FE08ED00E0FEE7000001B584B098
:1012C000012104A864228DE807000B460022782142
:1012D0000248FFF73BF905B000BD00009007002071
:1012E00001B584B0012104A864228DE807000B46F3
:1012F000402278210248FFF729F905B000BD00001F
:10130000900700200907090E002804DB00F1E02007
:1013100080F80014704700F00F0000F1E02080F822
:10132000141D704702E008C8121F08C1002AFAD134
:1013300070477047002001E001C1121F002AFBD155
:101340007047000008B5FFF7CFF9FFF76FFFFFF711
:10135000FBFDFFF753FE1448FFF790F9FFF7ADFED2
:10136000FFF76EFE114D42F21074002104237F221C
:1013700008460095FFF781FE002206211046FFF780
:1013800023FF012206211420FFF71EFF022206215F
:101390002820FFF719FF032206213C20FFF714FF46
:1013A0002046FEF711FFE0E7900700200000002034
:1013B0000000000000000000010203040607080905
:1013C0000000000001020304E813000800000020F0
:1013D000900700006C010008C41600089007002068
:1013E0005804000034130008819EC0E0F0F0F801BA
:1013F0005808F070602020201001217A080141393E
:1014000015192012201D4040E0E03B3901190A0562
:1014100035E0C0C080C010070F1F1F3F3F3FFF7F58
:101420001F0F070303012C58584801675858181814
:1014300030302808484888C8C8881899311B0103EB
:101440003E1F3FFFFF7F7F7F4303331F0600091AC4
:1014500080C0C0E0F01C06033D08080C90011CB0E1
:10146000B0B00612804A187DA1FC03FEF0FD1A8080
:1014700059091401E12AFF011808FEFCF8F0F0E018
:10148000E01DEB80804929E71B0109011E1819188E
:10149000180101A96429BE3CE0F0F0451946190184
:1014A0001AFE01490F69012A7F019C3F3F1F39B194
:1014B0000B12070F013A0E01FA0C0149188B0E0EA0
:1014C0002AFA07412A07011A0301C9AD0190001049
:1014D0001220242424FE23222020FF20222CA020BE
:1014E000000F110848847F02414020130C14224150
:1014F000F800101280642C342424EC322222322E84
:1015000023A260000F1141219189874D5525255552
:101510004D818080180840301196909091040611FA
:1015200098141350302A04013E44847E06050A01B3
:10153000121F0202021222C20604140202FE1C083A
:10154000180838071402024181403F158060F807EF
:10155000080910042424252624242460220132FFB3
:101560002BF949010212F915404042CC1F1010100E
:10157000907F90060A111021080E12201F20484467
:101580004241404041424C404029013AFE060A1087
:101590004020100880804020100C03000811030C2C
:1015A000102040808039F92F02FE02024282090198
:1015B0001729C311031301063B8082010F11E2A218
:1015C000928A86826049A50318807F172424A4FE8E
:1015D000A3225B22CC65011015080601FF2B010434
:1015E000010A12FFA0180C101010FF109008888834
:1015F00088FF04021108080F100444827F018080D4
:1016000040432C10284681A018094040484848C84B
:10161000784F06051548484040000915031212226C
:1016200022528A063C106080BA19040B11C030FBAC
:101630001E404043407F061C7F424106094FC0299F
:1016400041080B1110D030FF30D0121C10101F3D7C
:10165000080402019E0D1101020408211116FE2248
:101660002222FE0712FE828292A29E100880601F34
:101670000242827F0F11FF402F102C438011000B7C
:101680001490884C57A42454548C84180801018069
:1016900042221A07441D423E01018AF9E1000D145D
:1016A000E4242CB4252624B42C24E404180AFF02D4
:1016B000011E1212121E418609116029E4811324B1
:0416C000F400000032
:04000005080000ED02
:00000001FF
