:020000040800F2
:10000000B0040020010100088F120008030F00084F
:100010008D12000891010008C316000800000000BE
:100020000000000000000000000000000F150008A4
:1000300093010008000000000D15000811150008CC
:100040001B0100081B0100081B0100081B01000820
:100050001B0100081B0100081B0100081B01000810
:100060001B0100081B0100081B0100081B01000800
:100070001B0100081B0100081B0100081B010008F0
:100080001B0100081B0100081B0100081B010008E0
:100090001B0100081B0100081B0100081B010008D0
:1000A0001B0100081B0100081B0100081B010008C0
:1000B0001B0100081B0100081B0100081B010008B0
:1000C0001B0100081B0100081B0100081B010008A0
:1000D0001B0100081B0100081B0100081B01000890
:1000E0001B0100081B0100081B010008DFF80CD0F1
:1000F00000F03CF800480047D9170008B004002081
:100100000648804706480047FEE7FEE7FEE7FEE7B1
:10011000FEE7FEE7FEE7FEE7FEE7FEE765150008FF
:10012000ED00000840EA01039B0703D009E008C97D
:10013000121F08C0042AFAD203E011F8013B00F8AC
:10014000013B521EF9D27047D2B201E000F8012BF8
:10015000491EFBD270470022F6E710B513460A4647
:1001600004461946FFF7F0FF204610BD064C074D28
:1001700006E0E06840F0010394E807009847103477
:10018000AC42F6D3FFF7B6FFD0200008F0200008FD
:10019000FEE770477047000070B5044600F004F9B0
:1001A0000546601C02D004480078044400F0FCF8C6
:1001B000401BA042FAD370BD0C0000202DE9F84F7F
:1001C000DFF8B891002409F1040A0AF1040B234670
:1001D0000F270BF1040EC9E00125A5402A40AA42D1
:1001E0007DD1674ED1F804C0ACEB0608B44532D0DF
:1001F00014DCBCF1030F3AD009DCBCF1000F2AD0AB
:10020000BCF1010F1CD0BCF1020F31D11DE0BCF1DB
:10021000110F17D0BCF1120F2AD119E0B8F5881FC1
:1002200019D006DCB8F5803F15D0B8F5801F1FD176
:1002300011E0B8F5001F0ED0B8F5041F18D10AE080
:10024000CB6815E0CB681B1D12E0CB6808330FE0CC
:10025000CB680C330CE08B682BB1012B4FF00803FB
:1002600003D0456104E0042302E0056100E00023BF
:10027000FF2A01D8064601E000F104064FEA840592
:1002800001D9A5F12005D6F8008007FA05FC28EA77
:100290000C0803FA05F548EA0508C6F800804D6821
:1002A000ED0062D5374DAE6946F00106AE61AD692D
:1002B00024F0030605F001050095334D06EB050C0F
:1002C000DCF80850A607360F07FA06F825EA0805F5
:1002D000DFF8B880404503D14FF0000817E044E054
:1002E000DFF8AC80404502D14FF001080FE0DFF8A5
:1002F000A480404502D14FF0020808E0DFF8988062
:10030000404502D14FF0030801E04FF0040808FA1D
:1003100006F848EA0508CCF808804D68D9F800606E
:10032000ED034D4601D5164300E096432E604D681F
:10033000DAF80060AD03554601D5164300E0964358
:100340002E604D68DBF80060ED025D4601D5164376
:1003500000E096432E604D68DEF80060AD02754601
:1003600001D5164300E096432E60641C0D682A46B2
:10037000E5407FF431AFBDE8F88F00000004014094
:100380000000111000100240000001400008014070
:10039000000C014000100140001401400AB101614D
:1003A00070470904FBE700000148806870470000BF
:1003B0000C00002070B504001BD094F83D0000250F
:1003C00020B984F83C50204600F046F9242084F8F7
:1003D0003D002068016821F00101016000F08AFA07
:1003E0004D4A6168914201D84C4900E04C4988422D
:1003F00001D2012070BD4B492368B0FBF1F15E686A
:1004000026F03F060E435E606368934206D94FF4C0
:10041000967359434FF47A73B1FBF3F12368491C87
:100420001E6A26F03F06314319626168914210D876
:100430004900401EB0FBF1F2521CC2F30B02042A29
:1004400001D2042022E0B0FBF1F0401CC0F30B000D
:100450001CE0A368F3B301EBC10202EB0116421EDC
:10046000B2FBF6F2521C42F48042120549D093B31B
:1004700001EBC10202EB0111401EB0FBF1F0401C88
:10048000C0F30B0040F4804040F400402168CA698A
:100490004CF6FF739A431043C861D4E9070108433F
:1004A00021680A6822F0C00210430860D4E9030101
:1004B00001432068826848F2FF339A431143816008
:1004C000D4E9050108432168CA6822F0FF021043FD
:1004D000C86001E00EE016E02068016841F001010B
:1004E00001602564202084F83D00256384F83E5097
:1004F000002070BD01EB4106421EB2FBF6F2521C19
:10050000B3E70120C2E701EB4101401EB0FBF1F06F
:10051000401CC0F30B00B7E7A086010080841E00DA
:1005200000093D0040420F002DE9FF4F83B09A467D
:10053000DDE9119793460446DDF84080FFF734FF6C
:10054000054694F83D0020287FD119230122404917
:100550002046009500F05EFD002876D194F83C001E
:10056000012872D0012084F83C0020680168C90786
:1005700003D1016841F0010101602068016821F4A4
:1005800000610160212084F83D00402084F83E0095
:1005900000262664C4F82480A4F82A90608D208563
:1005A0002C48E062CDE9007553465A46204604992E
:1005B00000F0C0FC70B930E02A463946204600F011
:1005C000A8FD58B1206C042804D12068016841F4CA
:1005D00000710160012007B0BDE8F08F606A2168FA
:1005E00000780861606A401C6062218D491E89B2F2
:1005F0002185628D521E628522685369DB435B0749
:100600000BD469B100781061606A401C6062208D73
:10061000401E2085608D401E6085208D0028CBD136
:100620002A463946204600F0CFFC0028CAD154F8AB
:100630003D0B016841F400710160202004F81E099F
:10064000E67766770020C6E7FFE70220C3E70000F1
:10065000020010000000FFFF10B586B000210091DD
:1006600001910291039100680F4988421AD10F4C01
:10067000A06940F00800A061A069694600F0080088
:100680000490C0200090122001900320039008489D
:10069000FFF794FDE06940F40010E061E06900F4C8
:1006A0000010049006B010BD00540040001002403D
:1006B000000C014002488168027811448160704753
:1006C0000C000020074810B5016841F010010160DE
:1006D000032000F067F8002000F006F800F024F88E
:1006E000002010BD0020024070B50D4D04464FF4AF
:1006F0007A712878B1FBF0F00A490968B1FBF0F093
:1007000000F0CEFA48B9102C07D200222146501E24
:1007100000F028F800206C6070BD012070BD000062
:100720000C000020180000200C4808B5816941F039
:1007300001018161816901F001010091C16941F00C
:100740008051C161C06900F0805000900448416848
:1007500021F0E06141F08061416008BD001002407D
:1007600000000140F0B40E4B1B680C46C3F302239B
:10077000C3F10705042D00D90425191D072901D24D
:10078000002300E0DB1E012606FA05F1491E214088
:1007900099409E40761E16403143F0BC00F0B6BF33
:1007A0000CED00E0064900F0070208684FF6FF0371
:1007B000184040EA0220034A1043086070470000D6
:1007C0000CED00E00000FA052DE9F0470F460500AA
:1007D00061D0434E306800F00700B84209D230685B
:1007E00020F0070038433060306800F00700B8425E
:1007F00051D128683B4C810712D5400703D560686A
:1008000040F4E06060602878000703D5606840F439
:10081000605060606068A96820F0F0000843606084
:100820002878C00728D06868012810D021680228DD
:1008300010D0890700292EDA616821F003010143F5
:100840006160FFF7B1FD804641F288390DE0216813
:100850008903EFE78901EDE7FFF7A6FDA0EB0801AB
:10086000494502D90320BDE8F0876068696800F057
:100870000C00B0EB810FEFD1306800F00700B842F8
:100880000BD9306820F0070038433060306800F042
:100890000700B84201D00120E5E72878400705D5D8
:1008A0006068E96820F4E060084360602878000729
:1008B00006D56068296920F4605040EAC100606094
:1008C00000F028F86168084AC1F30311515CC84080
:1008D0000649086006480068FFF706FF0020C2E7E7
:1008E0000020024000100240B8200008180000203C
:1008F000100000200448054900684968044AC1F313
:100900000221515CC84070471800002000100240CE
:10091000C820000812A185B00FC98DE80F0014A0EF
:10092000144A006804905168134801F00C03042B2A
:1009300010D0082B0ED1C1F38343C9031DF8030067
:100940000AD5516804AAC1F34041515C0A4A504398
:10095000B0FBF1F005B0704708494843FAE70000E2
:1009600002030405060708090A0B0C0D0E0F1010F0
:10097000010200000010024000127A0000093D0050
:100980002DE9F84F040070D02078C04DC00749D041
:100990006868C0F38100012807D06868C0F381004F
:1009A000022809D16868C00306D52868800339D5B4
:1009B00060680028E7D035E06068B0F5803F0BD074
:1009C00010B1B0F5A02F11D0286820F48030286035
:1009D000286820F4802002E0286840F480302860F5
:1009E000606890B1FFF7E0FC06460AE0286840F432
:1009F00080202860F0E700BFFFF7D6FC801B64284A
:100A000073D828688003F7D50CE0FFF7CDFC0646C5
:100A100005E000BFFFF7C8FC801B6428F0D82868F9
:100A20008003F7D420789A4E80074FF001094FF0E9
:100A3000000839D5686810F00C0F07D06868C0F35B
:100A40008100022809D16868C00306D4286880079D
:100A500014D52069012808D110E02069B0B1C6F88A
:100A60000090FFF7A1FC074605E00AE1FFF79CFCB8
:100A7000C01B0228C4D828688007F7D52868616998
:100A800020F0F80040EAC10028600DE0C6F80080C0
:100A9000FFF78AFC074604E0FFF786FCC01B02282C
:100AA00023D828688007F7D4207800072CD5794808
:100AB000A169D9B1C0F80090FFF776FC074604E0C1
:100AC000FFF772FCC01B02280FD8686A8007F7D5B1
:100AD00071484FF4FA510068B0FBF1F0009000BF8C
:100AE0000098411E0091FAD20EE080E0C0F800802C
:100AF000FFF75AFC074604E0FFF756FCC01B02282C
:100B000075D8686A8007F7D42078400760D5E8690F
:100B10000027C00008D4E86940F08050E861E86927
:100B2000012700F0805000905C480168C90513D48B
:100B30000168834641F480710160FFF735FC82460D
:100B400006E000BFFFF730FCA0EB0A0064284ED897
:100B5000DBF80000C005F5D5E06801280AD008B12F
:100B6000052813D0286A20F001002862286A20F0A6
:100B7000040002E0286A40F001002862E06841F2C7
:100B8000883B98B1FFF710FC82460BE0286A40F0E2
:100B900004002862EEE700BFFFF706FCA0EB0A01A5
:100BA00059455AD8286A8007F6D50CE0FFF7FCFBB8
:100BB000824605E0FFF7F8FBA0EB0A0159454CD847
:100BC000286A8007F6D41FB1E86920F08050E861F8
:100BD000E06988B36968C1F38101022944D0022821
:100BE000C6F8608004D0FFF7DFFB044638E034E04D
:100BF000FFF7DAFB074604E0FFF7D6FBC01B02282D
:100C00002BD828688001F7D4206AB0F5803F05D141
:100C10006868A16820F4003008436860D4E90801DE
:100C20000843696821F4741108436860C6F860904D
:100C3000FFF7BAFB044606E025E000BFFFF7B4FB70
:100C4000001B022809D828688001F7D51BE000BFE7
:100C5000FFF7AAFB001B022802D90320BDE8F88F8A
:100C600028688001F4D40EE00128F7D06868226A71
:100C700000F48031914204D1616A00F4701088421E
:100C800001D00120EAE70020E8E700000010024060
:100C900000004242800442421800002000700040E0
:100CA00010B5401EB0F1807F01D3012010BD4FF080
:100CB000E02460610F21601700F028FD0020A06192
:100CC00007202061002010BD70B590F83C20012A5B
:100CD00019D0012400F83C4F0222427050F83C3CED
:100CE0005A689D6822F070060A684968324325F008
:100CF000800529435A6050F83C2C916044700021D3
:100D00000170084670BD022070BD2DE9F041044617
:100D100090F83C000D4601283BD0012684F83C6049
:100D2000022084F83D009AB3042A44D02068082A9F
:100D300053D0D5E90027E968036A23F4805303629E
:100D4000D0F81CC0036A2CF4407C4CEA07274FF60D
:100D5000FF7C27F470470CEA01313943770323F411
:100D6000005307EA02321A43C16102622068C16976
:100D700021F44061C1612068C169AA6841EA022189
:100D8000C16184F83D60002084F83C00BDE8F0813A
:100D900001E00220FAE7D5E90012EB68206800F0D4
:100DA00049FC2068816921F00C018161206881691A
:100DB000AA6811430FE0D5E90012EB68206800F043
:100DC00065FC2068816921F4406181612068816946
:100DD000AA6841EA02218161D3E7D5E9002C2F7B83
:100DE000016A21F480710162C169036A21F0030183
:100DF00041EA0C0121F0F00C39074FF400774CEA7E
:100E0000116123F4007307EA02221A43C1610262EE
:100E10002068C16921F00C01C1612068C169AA681C
:100E20001143ADE710B5040003D094F83D0010B1B4
:100E300007E0012010BD002084F83C00204600F0AF
:100E40000DF8022084F83D00211D206800F0AEFB63
:100E5000012084F83D00002010BD000000B585B0E1
:100E6000002100910191029103910068B0F1804F3F
:100E700016D10C48C16941F00101C161C16901F09D
:100E800001010491816941F0040181618069694631
:100E900000F004000490022000900348FFF78EF950
:100EA00005B000BD001002400008014010B5026806
:100EB000044631B1042908D008291AD00C2908D1D8
:100EC0001BE0D06840F0020002E0D06840F004006F
:100ED000D0600122206800F09FFB2068816801F04B
:100EE0000701062903D0016841F0010101600020DB
:100EF00010BDD06840F00800EAE7D06840F010006C
:100F0000E6E7FEE701684A69D24352050FD46FF461
:100F100080624A61002140F8301F202242738173B1
:100F2000026942F00402026101730120704700204F
:100F3000704700002DE9F843044600680D46DDE9DE
:100F4000089701689846164641F4807101604B4647
:100F500000224FF001112046009700F05BF8E0B945
:100F6000216805F0FE0008613B464A4615492046C7
:100F700000F084F888B920684169806900903A4699
:100F80004946204600F0C5F850B1206C042804D131
:100F90002068016841F4007101600120BDE8F88318
:100FA000F5B2B8F1010F09D02168300A08613A465C
:100FB0004946204600F0ADF80028E6D120680561DA
:100FC0000020EBE70200010070B516460D4604460E
:100FD0000DE02046FFF796FF08B1012070BD681CA8
:100FE00005D0FFF7E1F9801BA84207D835B120688A
:100FF0004069C0434007ECD4002070BD002044F895
:10100000300F20216173A073216941F0200121611B
:101010002073E2E72DE9F0471E4690460D46044650
:10102000C1F30747DDF8209008E0701C06D0FFF7F9
:10103000BBF9A0EB0900B0420FD876B12068012FB0
:1010400018D0806925EA00000004000C14D00021AB
:101050004145EAD00020BDE8F087002044F8300F79
:1010600020216173A073216941F020012161207367
:101070000120F0E74069E5E70121E9E72DE9F047C4
:101080009A4691460E46044600254FF02008C1F3CB
:10109000074725E020684069C043400514D4206814
:1010A000016841F40071016021686FF4806048615B
:1010B000256384F83D8084F83E50206C40F00400A5
:1010C000206484F83C501FE0B9F1FF3F08D0FFF7DF
:1010D0006BF9A0EB0A0149450CD8B9F1000F09D012
:1010E0002068012F13D0806926EA00000004000C5C
:1010F0000BD0CFE744F8305F84F80D80A5732069EA
:1011000040F02000206125730120BDE8F087406990
:10111000EAE770B516460D4604460DE02046FFF797
:10112000F1FE08B1012070BD681C05D0FFF73CF945
:10113000801BA84207D835B120684069C04300062B
:10114000ECD4002070BD002044F8300F20216173E2
:10115000A073216941F0200121612073E2E70000C2
:1011600030B585B000241C48009401940294039487
:10117000816941F020018161816901F020010491C0
:10118000816941F010018161816901F010010491D0
:10119000816941F004018161816901F004010491D8
:1011A000816941F00801816180690C4D00F00800FF
:1011B0000490002208212846FFF7F0F8082000904C
:1011C0000120CDE901040220039069462846FEF77C
:1011D000F5FF05B030BD00000010024000100140D6
:1011E0000D4810B50B4901600C49416000214FF4D6
:1011F00080428160C0E9031241618161C161016285
:10120000FFF7D8F8002803D0BDE81040FEF7C2BFB2
:1012100010BD0000005400401C000020A08601000A
:1012200010B586B0002418480594049400940194E5
:1012300002944FF08041039401604721C0E90114FA
:101240004FF6FF71C0E903148461FFF7EBFD08B1AD
:10125000FEF7A0FF049404A90B480594FFF734FDA2
:1012600008B1FEF797FF0120CDE900400294042267
:10127000694605480394FFF748FD002801D0FEF7B2
:1012800089FF06B010BD000070000020FEE7704727
:1012900070B50024002104F1B00000F031F9002104
:1012A000084600F02DF90021102000F029F9002552
:1012B0000121002000F024F96D1CEDB2802DF7D340
:1012C000641CE4B2082CE5D370BD10B5C820FEF74D
:1012D00063FF0021AE2000F013F90021084600F062
:1012E0000FF90021102000F00BF90021402000F040
:1012F00007F90021B02000F003F90021812000F05F
:10130000FFF80021FF2000F0FBF80021A12000F0F1
:10131000F7F80021A62000F0F3F80021A82000F043
:10132000EFF800213F2000F0EBF80021C82000F08A
:10133000E7F80021D32000F0E3F80021084600F090
:10134000DFF80021D52000F0DBF80021802000F03C
:10135000D7F80021D82000F0D3F80021052000F0B4
:10136000CFF80021D92000F0CBF80021F12000F0C7
:10137000C7F80021DA2000F0C3F80021122000F0A5
:10138000BFF80021DB2000F0BBF80021302000F086
:10139000B7F800218D2000F0B3F80021142000F0F0
:1013A000AFF80021BDE81040AF2000F0A9B810B59B
:1013B0000A460446002102F1B00000F0A1F8102016
:1013C00040EA1410002100F09BF804F00F00BDE883
:1013D0001040002100F094B82DE9F041203A00249B
:1013E0000D468046D6B27F2803D900208D1C80464A
:1013F000EDB2102B294610D0FFF7D9FF164906EBA6
:10140000460001EB40050121285D00F079F8641CDD
:10141000E4B2062CF7D3BDE8F081FFF7C8FF0F4F09
:1014200004EB06100121385C00F06AF8641CE4B299
:10143000082CF5D36D1CE9B24046FFF7B8FF002435
:1014400004EB061038440121007A00F059F8641CBE
:10145000E4B2082CF4D3DEE7A0180008C81A00088C
:101460002DE9F05F0026DDF828901D4692468B4658
:10147000804634464FEA590723E0281B401EC1B27C
:101480000A2000F005FABAFBF0F00A21B0FBF1F2F5
:1014900001FB120026B9691E8C4201DA38B101261F
:1014A0003030C2B207FB0480C0B24B4604E007FBF9
:1014B0000480C0B24B4620225946FFF78DFF641CC2
:1014C000E4B2AC42D9D3BDE8F09F2DE9F041984693
:1014D00017460E46044600250DE043463146204699
:1014E000FFF77AFF0834E4B2782C02D90024B61C46
:1014F000F6B26D1CEDB27A5D002AEED1BDE8F08146
:10150000C0B209B100F0F0B800F0DCB87047704725
:10151000FFF7D0B830B58FB028216846FEF71BFE24
:1015200014210AA8FEF717FE01210804CDE90010D6
:101530000024029402250491CDE907504FF4E010F5
:1015400009906846FFF71CFA0F20CDE90A056802EA
:10155000CDE90C4002210AA80E94FFF735F90FB02F
:1015600030BD00000D48016841F001010160416893
:101570000B4A1140416001680A4A1140016001684C
:1015800021F480210160416821F4FE0141604FF4A3
:101590001F0181600449C0030860704700100240C9
:1015A0000000FFF8FFFFF6FE08ED00E0F0B502686E
:1015B000164B174C174D4FF08047984205D0B84254
:1015C00003D0A04201D0A84203D122F070064A689D
:1015D0003243984205D0B84203D0A04201D0A8427D
:1015E00003D122F44074CA6822434C6922F080027D
:1015F000224302608A68C2620A688262984201D10C
:101600000969016301214161F0BD0000002C014026
:10161000000400400008004010B501F01F03012144
:10162000046A99408C430462016A9A401143016242
:1016300010BD000070B5046A24F0010404628469DE
:10164000056A0F4EB04208D0B0F1804F05D00D4E64
:10165000B04202D00C4EB04203D124F00304144334
:1016600001E044F001041A0724F0F00444EA126295
:1016700025F00A0301F00A0119438261016270BD7D
:10168000002C0140000400400008004030B5046A0E
:1016900024F0100404628469056A24F4407444EA66
:1016A000022222F470444FF6FF7202EA0332224310
:1016B000A02425F0A00304EA01111943826101620C
:1016C00030BDFEE701B584B0012104A864228DE895
:1016D00007000B46002278210248FEF725FF05B0DF
:1016E00000BD00001C00002001B584B0012104A849
:1016F00064228DE807000B46402278210248FEF75D
:1017000013FF05B000BD00001C0000200907090EF2
:10171000002804DB00F1E02080F80014704700F09E
:101720000F0000F1E02080F8141D704702E008C8A7
:10173000121F08C1002AFAD170477047002001E04B
:1017400001C1121F002AFBD17047000031B54FF4D0
:1017500061740098A04210D9002502E0FFF7F6FF5F
:101760006D1C00992046B1FBF0F1A942F6D8009813
:10177000B0FBF4F104FB110000904FF0E020816910
:10178000009AA2EBC20202EB420211EBC20205D4A4
:1017900083698B4201DA9342FADA38BD034B134472
:1017A00082698A42FCDD9A42FADC38BD4090020030
:1017B00010B5084C012208212046FEF7EFFD0A2053
:1017C000FFF7C4FF20460022BDE810400821FEF7C5
:1017D000E5BD00000010014086B0FEF773FFFFF783
:1017E00099FEFFF7BDFCFFF71BFDFFF7F9FC204852
:1017F000FEF732FF04211F48FFF758FB1D4C2068FD
:10180000C16841F00101C160FFF75FFDFFF740FDD6
:10181000142219A101A8FEF785FC10271B4D0026F4
:101820004FF47A780121122301AA0846FFF74DFEF2
:1018300000970321052308466A68FFF711FEFFF7AA
:10184000B7FF28780006EDD54046FEF7A5FC2068D6
:1018500046622068016A21F0A00101622068016AE5
:101860000162016841F0010101602E70DAE70000B9
:101870001C000020700000205468652064697374A7
:10188000616E636520697320000000000000002085
:101890000246012000E05043491EC9B2FBD2704706
:1018A0000000000000000000002F00000000070002
:1018B000070000147F147F1400242A7F2A1200627C
:1018C0006408132300364955225000000503000028
:1018D00000001C224100000041221C000014083EB0
:1018E00008140008083E0808000000A06000000876
:1018F00008080808000060600000002010080402CA
:10190000003E5149453E0000427F40000042615187
:101910004946002141454B31001814127F10002721
:1019200045454539003C4A494930000171090503E4
:1019300000364949493600064949291E0000363615
:101940000000000056360000000814224100001478
:101950001414141400004122140800020151090655
:1019600000324959513E007C1211127C007F4949D6
:101970004936003E41414122007F4141221C007F07
:1019800049494941007F09090901003E4149497A15
:10199000007F0808087F0000417F4100002040418F
:1019A0003F01007F08142241007F40404040007FFB
:1019B000020C027F007F0408107F003E4141413E3F
:1019C000007F09090906003E4151215E007F091987
:1019D00029460046494949310001017F0101003F84
:1019E0004040403F001F2040201F003F4038403F04
:1019F0000063140814630007087008070061514968
:101A0000454300007F41410000552A552A550000FA
:101A100041417F0000040201020400404040404078
:101A2000000001020400002054545478007F484410
:101A3000443800384444442000384444487F003847
:101A40005454541800087E0901020018A4A4A47C70
:101A5000007F080404780000447D4000004080843A
:101A60007D00007F102844000000417F4000007C82
:101A700004180478007C080404780038444444388E
:101A800000FC242424180018242418FC007C0804DA
:101A9000040800485454542000043F444020003CB3
:101AA0004040207C001C2040201C003C4030403C3A
:101AB000004428102844001CA0A0A07C00446454CA
:101AC0004C4414141414141400000000000000000E
:101AD0000000000000000000000000F8000000000E
:101AE000000000333000000000100C06100C06004F
:101AF000000000000000000040C07840C0784000B6
:101B0000043F04043F040400007088FC0830000017
:101B1000001820FF211E0000F008F000E01800006F
:101B200000211C031E211E0000F008887000000028
:101B30001E2123241927211010160E00000000007A
:101B40000000000000000000000000E01804020097
:101B5000000000071820400000020418E000000008
:101B60000040201807000000404080F08040400006
:101B70000202010F01020200000000F0000000005C
:101B80000101011F01010100000000000000000030
:101B900080B07000000000000000000000000000A5
:101BA000000101010101010100000000000000002E
:101BB00000303000000000000000000080601804C9
:101BC000006018060100000000E010080810E000A6
:101BD000000F102020100F00001010F8000000006F
:101BE0000020203F202000000070080808887000B6
:101BF0000030282422213000003008888848300036
:101C00000018202020110E000000C02010F8000055
:101C100000070424243F240000F8088888080800EE
:101C20000019212020110E0000E010888818000003
:101C3000000F112020110E0000380808C8380800D5
:101C40000000003F00000000007088080888700055
:101C5000001C222121221C0000E010080810E000D6
:101C60000000312222110F00000000C0C00000005F
:101C70000000003030000000000000800000000084
:101C8000000080600000000000008040201008007C
:101C90000001020408102000404040404040400045
:101CA0000404040404040400000810204080000020
:101CB0000020100804020100007048080808F00025
:101CC0000000003036010000C030C828E810E000F5
:101CD0000718272423140B000000C038E000000080
:101CE000203C23020227382008F8888888700000EA
:101CF000203F202020110E00C030080808083800BE
:101D0000071820202010080008F808080810E00034
:101D1000203F202020100F0008F88888E8081000D5
:101D2000203F20202320180008F88888E8081000A9
:101D3000203F200003000000C030080808380000E1
:101D400007182020221E020008F808000008F808E2
:101D5000203F210101213F20000808F80808000069
:101D60000020203F2020000000000808F80808009C
:101D7000C08080807F00000008F888C02818080014
:101D8000203F20012638200008F80800000000004D
:101D9000203F20202020300008F8F800F8F8080044
:101DA000203F003F003F200008F830C00008F8083E
:101DB000203F200007183F00E01008080810E0004E
:101DC0000F10202020100F0008F808080808F00065
:101DD000203F210101010000E01008080810E00088
:101DE0000F18242438504F0008F88888888870001D
:101DF000203F2000030C30200070880808083800BD
:101E00000038202121221C00180808F808081800B2
:101E10000000203F2000000008F808000008F80833
:101E2000001F202020201F000878880000C83808E4
:101E3000000007380E010000F80800F80008F8005C
:101E4000033C0700073C03000818688080681808F6
:101E500020302C03032C30200838C800C838080074
:101E60000000203F2000000010080808C8380800C3
:101E70002038262120201800000000FE0202020067
:101E80000000007F40404000000C30C00000000017
:101E9000000000010638C00000020202FE0000003F
:101EA000004040407F0000000000040202020400E5
:101EB0000000000000000000000000000000000022
:101EC000808080808080808000020204000000000A
:101ED0000000000000000000000080808080000002
:101EE0000019242222223F2008F8008080000000F0
:101EF000003F112020110E000000008080800000B3
:101F0000000E112020201100000000808088F800C1
:101F1000000E112020103F200000808080800000F3
:101F2000001F222222221300008080F08888881857
:101F30000020203F20200000000080808080800062
:101F4000006B94949493600008F8008080800000F7
:101F5000203F210000203F200080989800000000D2
:101F60000020203F20200000000000809898000002
:101F700000C08080807F000008F800008080800022
:101F8000203F24022D302000000808F80000000047
:101F90000020203F20200000808080808080800002
:101FA000203F20003F20003F808000808080000094
:101FB000203F210000203F20000080808080000022
:101FC000001F202020201F00808000808000000053
:101FD00080FFA12020110E00000000808080800082
:101FE000000E112020A0FF80808080008080800073
:101FF00020203F21200001000000808080808000A0
:102000000033242424241900008080E08080000014
:102010000000001F20200000808000000080800061
:10202000001F202020103F208080800000808080C2
:1020300000010E3008060100808000800080808052
:102040000F300C030C300F00008080008080800077
:102050000020312E0E3120008080800000808080A2
:1020600080818E7018060100008080808080800052
:102070000021302C2221300000000000807C020270
:1020800000000000003F404000000000FF00000092
:1020900000000000FF0000000002027C8000000041
:1020A0000040403F0000000000060101020204045D
:1020B0000000000000000000000000000000000020
:1020C00001020304060708090000000001020304DE
:1020D000F0200008000000201C0000002C17000861
:1020E0000C2100081C000020940400003C1700088C
:1020F00000000000EC1300000000000001000000E0
:0C21000010000000000000000024F400AB
:04000005080000ED02
:00000001FF
